{
  "contractName": "PetShop",
  "abi": [
    {
      "inputs": [
        {
          "internalType": "uint256",
          "name": "",
          "type": "uint256"
        }
      ],
      "name": "items",
      "outputs": [
        {
          "internalType": "string",
          "name": "name",
          "type": "string"
        },
        {
          "internalType": "string",
          "name": "description",
          "type": "string"
        },
        {
          "internalType": "string",
          "name": "ipfsUrl",
          "type": "string"
        },
        {
          "internalType": "uint256",
          "name": "price",
          "type": "uint256"
        },
        {
          "internalType": "uint256",
          "name": "quantity",
          "type": "uint256"
        },
        {
          "internalType": "address payable",
          "name": "owner",
          "type": "address"
        },
        {
          "internalType": "bool",
          "name": "isPet",
          "type": "bool"
        },
        {
          "internalType": "bool",
          "name": "isSold",
          "type": "bool"
        }
      ],
      "stateMutability": "view",
      "type": "function",
      "constant": true
    },
    {
      "inputs": [
        {
          "internalType": "address",
          "name": "",
          "type": "address"
        },
        {
          "internalType": "uint256",
          "name": "",
          "type": "uint256"
        }
      ],
      "name": "orderHistory",
      "outputs": [
        {
          "internalType": "bytes32",
          "name": "orderId",
          "type": "bytes32"
        },
        {
          "internalType": "string",
          "name": "ipfsUrl",
          "type": "string"
        },
        {
          "internalType": "string",
          "name": "productName",
          "type": "string"
        },
        {
          "internalType": "uint256",
          "name": "quantity",
          "type": "uint256"
        },
        {
          "internalType": "uint256",
          "name": "totalPrice",
          "type": "uint256"
        },
        {
          "internalType": "address",
          "name": "buyer",
          "type": "address"
        },
        {
          "internalType": "uint256",
          "name": "timestamp",
          "type": "uint256"
        }
      ],
      "stateMutability": "view",
      "type": "function",
      "constant": true
    },
    {
      "inputs": [
        {
          "internalType": "string",
          "name": "_name",
          "type": "string"
        },
        {
          "internalType": "string",
          "name": "_description",
          "type": "string"
        },
        {
          "internalType": "uint256",
          "name": "_price",
          "type": "uint256"
        },
        {
          "internalType": "uint256",
          "name": "_quantity",
          "type": "uint256"
        },
        {
          "internalType": "string",
          "name": "_ipfsUrl",
          "type": "string"
        },
        {
          "internalType": "bool",
          "name": "_isPet",
          "type": "bool"
        }
      ],
      "name": "listItem",
      "outputs": [],
      "stateMutability": "nonpayable",
      "type": "function"
    },
    {
      "inputs": [],
      "name": "getAvailablePets",
      "outputs": [
        {
          "internalType": "uint256[]",
          "name": "",
          "type": "uint256[]"
        }
      ],
      "stateMutability": "view",
      "type": "function",
      "constant": true
    },
    {
      "inputs": [],
      "name": "getAvailableProducts",
      "outputs": [
        {
          "internalType": "uint256[]",
          "name": "",
          "type": "uint256[]"
        }
      ],
      "stateMutability": "view",
      "type": "function",
      "constant": true
    },
    {
      "inputs": [
        {
          "internalType": "uint256",
          "name": "index",
          "type": "uint256"
        }
      ],
      "name": "getItem",
      "outputs": [
        {
          "internalType": "string",
          "name": "",
          "type": "string"
        },
        {
          "internalType": "string",
          "name": "",
          "type": "string"
        },
        {
          "internalType": "uint256",
          "name": "",
          "type": "uint256"
        },
        {
          "internalType": "string",
          "name": "",
          "type": "string"
        },
        {
          "internalType": "address",
          "name": "",
          "type": "address"
        },
        {
          "internalType": "uint256",
          "name": "",
          "type": "uint256"
        },
        {
          "internalType": "uint256",
          "name": "",
          "type": "uint256"
        }
      ],
      "stateMutability": "view",
      "type": "function",
      "constant": true
    },
    {
      "inputs": [],
      "name": "getMyPets",
      "outputs": [
        {
          "internalType": "uint256[]",
          "name": "",
          "type": "uint256[]"
        }
      ],
      "stateMutability": "view",
      "type": "function",
      "constant": true
    },
    {
      "inputs": [
        {
          "internalType": "uint256",
          "name": "_petId",
          "type": "uint256"
        }
      ],
      "name": "buyPet",
      "outputs": [],
      "stateMutability": "payable",
      "type": "function",
      "payable": true
    },
    {
      "inputs": [
        {
          "internalType": "uint256",
          "name": "_productId",
          "type": "uint256"
        },
        {
          "internalType": "uint256",
          "name": "_quantity",
          "type": "uint256"
        }
      ],
      "name": "buyProduct",
      "outputs": [],
      "stateMutability": "payable",
      "type": "function",
      "payable": true
    },
    {
      "inputs": [],
      "name": "getOrderHistory",
      "outputs": [
        {
          "components": [
            {
              "internalType": "bytes32",
              "name": "orderId",
              "type": "bytes32"
            },
            {
              "internalType": "string",
              "name": "ipfsUrl",
              "type": "string"
            },
            {
              "internalType": "string",
              "name": "productName",
              "type": "string"
            },
            {
              "internalType": "uint256",
              "name": "quantity",
              "type": "uint256"
            },
            {
              "internalType": "uint256",
              "name": "totalPrice",
              "type": "uint256"
            },
            {
              "internalType": "address",
              "name": "buyer",
              "type": "address"
            },
            {
              "internalType": "uint256",
              "name": "timestamp",
              "type": "uint256"
            }
          ],
          "internalType": "struct PetShop.Order[]",
          "name": "",
          "type": "tuple[]"
        }
      ],
      "stateMutability": "view",
      "type": "function",
      "constant": true
    }
  ],
  "bytecode": "0x608060405234801561000f575f80fd5b506129318061001d5f395ff3fe608060405260043610610090575f3560e01c806353b628661161005857806353b628661461017c5780639edded1114610198578063a301a676146101b4578063a36c7306146101f6578063bfb231d21461022057610090565b80630deda1e6146100945780630ff4e2b4146100be5780633129e773146100e85780633cdcae1a1461012a5780634f154c5414610152575b5f80fd5b34801561009f575f80fd5b506100a8610263565b6040516100b59190611ac8565b60405180910390f35b3480156100c9575f80fd5b506100d2610496565b6040516100df9190611b90565b60405180910390f35b3480156100f3575f80fd5b5061010e60048036038101906101099190611beb565b610637565b6040516101219796959493929190611c7c565b60405180910390f35b348015610135575f80fd5b50610150600480360381019061014b9190611e5f565b61093a565b005b34801561015d575f80fd5b50610166610a99565b6040516101739190611b90565b60405180910390f35b61019660048036038101906101919190611f3c565b610c50565b005b6101b260048036038101906101ad9190611beb565b6110d7565b005b3480156101bf575f80fd5b506101da60048036038101906101d59190611fa4565b61129f565b6040516101ed9796959493929190611ff1565b60405180910390f35b348015610201575f80fd5b5061020a611422565b6040516102179190611b90565b60405180910390f35b34801561022b575f80fd5b5061024660048036038101906102419190611beb565b611657565b60405161025a98979695949392919061209b565b60405180910390f35b606060015f3373ffffffffffffffffffffffffffffffffffffffff1673ffffffffffffffffffffffffffffffffffffffff1681526020019081526020015f20805480602002602001604051908101604052809291908181526020015f905b8282101561048d578382905f5260205f2090600702016040518060e00160405290815f82015481526020016001820180546102fb90612159565b80601f016020809104026020016040519081016040528092919081815260200182805461032790612159565b80156103725780601f1061034957610100808354040283529160200191610372565b820191905f5260205f20905b81548152906001019060200180831161035557829003601f168201915b5050505050815260200160028201805461038b90612159565b80601f01602080910402602001604051908101604052809291908181526020018280546103b790612159565b80156104025780601f106103d957610100808354040283529160200191610402565b820191905f5260205f20905b8154815290600101906020018083116103e557829003601f168201915b505050505081526020016003820154815260200160048201548152602001600582015f9054906101000a900473ffffffffffffffffffffffffffffffffffffffff1673ffffffffffffffffffffffffffffffffffffffff1673ffffffffffffffffffffffffffffffffffffffff168152602001600682015481525050815260200190600101906102c1565b50505050905090565b60605f805b5f8054905081101561052c575f81815481106104ba576104b9612189565b5b905f5260205f20906006020160050160149054906101000a900460ff1615801561050557505f8082815481106104f3576104f2612189565b5b905f5260205f20906006020160040154115b15610519578180610515906121e3565b9250505b8080610524906121e3565b91505061049b565b505f8167ffffffffffffffff81111561054857610547611d06565b5b6040519080825280602002602001820160405280156105765781602001602082028036833780820191505090505b5090505f805b5f8054905081101561062d575f818154811061059b5761059a612189565b5b905f5260205f20906006020160050160149054906101000a900460ff161580156105e657505f8082815481106105d4576105d3612189565b5b905f5260205f20906006020160040154115b1561061a57808383815181106105ff576105fe612189565b5b6020026020010181815250508180610616906121e3565b9250505b8080610625906121e3565b91505061057c565b5081935050505090565b6060805f60605f805f80805490508810610686576040517f08c379a000000000000000000000000000000000000000000000000000000000815260040161067d90612274565b60405180910390fd5b5f80898154811061069a57610699612189565b5b905f5260205f209060060201604051806101000160405290815f820180546106c190612159565b80601f01602080910402602001604051908101604052809291908181526020018280546106ed90612159565b80156107385780601f1061070f57610100808354040283529160200191610738565b820191905f5260205f20905b81548152906001019060200180831161071b57829003601f168201915b5050505050815260200160018201805461075190612159565b80601f016020809104026020016040519081016040528092919081815260200182805461077d90612159565b80156107c85780601f1061079f576101008083540402835291602001916107c8565b820191905f5260205f20905b8154815290600101906020018083116107ab57829003601f168201915b505050505081526020016002820180546107e190612159565b80601f016020809104026020016040519081016040528092919081815260200182805461080d90612159565b80156108585780601f1061082f57610100808354040283529160200191610858565b820191905f5260205f20905b81548152906001019060200180831161083b57829003601f168201915b505050505081526020016003820154815260200160048201548152602001600582015f9054906101000a900473ffffffffffffffffffffffffffffffffffffffff1673ffffffffffffffffffffffffffffffffffffffff1673ffffffffffffffffffffffffffffffffffffffff1681526020016005820160149054906101000a900460ff161515151581526020016005820160159054906101000a900460ff1615151515815250509050805f01518160200151826060015183604001518460a001518d8660800151975097509750975097509750975050919395979092949650565b5f6040518061010001604052808881526020018781526020018481526020018681526020018581526020013373ffffffffffffffffffffffffffffffffffffffff16815260200183151581526020015f1515815250908060018154018082558091505060019003905f5260205f2090600602015f909190919091505f820151815f0190816109c8919061242f565b5060208201518160010190816109de919061242f565b5060408201518160020190816109f4919061242f565b50606082015181600301556080820151816004015560a0820151816005015f6101000a81548173ffffffffffffffffffffffffffffffffffffffff021916908373ffffffffffffffffffffffffffffffffffffffff16021790555060c08201518160050160146101000a81548160ff02191690831515021790555060e08201518160050160156101000a81548160ff0219169083151502179055505050505050505050565b60605f805b5f80549050811015610b3a575f8181548110610abd57610abc612189565b5b905f5260205f20906006020160050160149054906101000a900460ff168015610b1357505f8181548110610af457610af3612189565b5b905f5260205f20906006020160050160159054906101000a900460ff16155b15610b27578180610b23906121e3565b9250505b8080610b32906121e3565b915050610a9e565b505f8167ffffffffffffffff811115610b5657610b55611d06565b5b604051908082528060200260200182016040528015610b845781602001602082028036833780820191505090505b5090505f805b5f80549050811015610c46575f8181548110610ba957610ba8612189565b5b905f5260205f20906006020160050160149054906101000a900460ff168015610bff57505f8181548110610be057610bdf612189565b5b905f5260205f20906006020160050160159054906101000a900460ff16155b15610c335780838381518110610c1857610c17612189565b5b6020026020010181815250508180610c2f906121e3565b9250505b8080610c3e906121e3565b915050610b8a565b5081935050505090565b5f808381548110610c6457610c63612189565b5b905f5260205f20906006020190508060050160149054906101000a900460ff1615610cc4576040517f08c379a0000000000000000000000000000000000000000000000000000000008152600401610cbb9061256e565b60405180910390fd5b8181600401541015610d0b576040517f08c379a0000000000000000000000000000000000000000000000000000000008152600401610d02906125d6565b60405180910390fd5b5f828260030154610d1c91906125f4565b905080341015610d61576040517f08c379a0000000000000000000000000000000000000000000000000000000008152600401610d589061267f565b60405180910390fd5b5f826005015f9054906101000a900473ffffffffffffffffffffffffffffffffffffffff1673ffffffffffffffffffffffffffffffffffffffff1682604051610da9906126ca565b5f6040518083038185875af1925050503d805f8114610de3576040519150601f19603f3d011682016040523d82523d5f602084013e610de8565b606091505b5050905080610e2c576040517f08c379a0000000000000000000000000000000000000000000000000000000008152600401610e2390612728565b60405180910390fd5b83836004015f828254610e3f9190612746565b925050819055505f42338787604051602001610e5e94939291906127de565b60405160208183030381529060405280519060200120905060015f3373ffffffffffffffffffffffffffffffffffffffff1673ffffffffffffffffffffffffffffffffffffffff1681526020019081526020015f206040518060e00160405280838152602001866002018054610ed390612159565b80601f0160208091040260200160405190810160405280929190818152602001828054610eff90612159565b8015610f4a5780601f10610f2157610100808354040283529160200191610f4a565b820191905f5260205f20905b815481529060010190602001808311610f2d57829003601f168201915b50505050508152602001865f018054610f6290612159565b80601f0160208091040260200160405190810160405280929190818152602001828054610f8e90612159565b8015610fd95780601f10610fb057610100808354040283529160200191610fd9565b820191905f5260205f20905b815481529060010190602001808311610fbc57829003601f168201915b505050505081526020018781526020018581526020013373ffffffffffffffffffffffffffffffffffffffff16815260200142815250908060018154018082558091505060019003905f5260205f2090600702015f909190919091505f820151815f01556020820151816001019081611052919061242f565b506040820151816002019081611068919061242f565b50606082015181600301556080820151816004015560a0820151816005015f6101000a81548173ffffffffffffffffffffffffffffffffffffffff021916908373ffffffffffffffffffffffffffffffffffffffff16021790555060c082015181600601555050505050505050565b5f8082815481106110eb576110ea612189565b5b905f5260205f20906006020190508060030154341015611140576040517f08c379a000000000000000000000000000000000000000000000000000000000815260040161113790612875565b60405180910390fd5b3373ffffffffffffffffffffffffffffffffffffffff16816005015f9054906101000a900473ffffffffffffffffffffffffffffffffffffffff1673ffffffffffffffffffffffffffffffffffffffff16036111d1576040517f08c379a00000000000000000000000000000000000000000000000000000000081526004016111c8906128dd565b60405180910390fd5b806005015f9054906101000a900473ffffffffffffffffffffffffffffffffffffffff1673ffffffffffffffffffffffffffffffffffffffff166108fc826003015490811502906040515f60405180830381858888f1935050505015801561123b573d5f803e3d5ffd5b5060018160050160156101000a81548160ff02191690831515021790555033816005015f6101000a81548173ffffffffffffffffffffffffffffffffffffffff021916908373ffffffffffffffffffffffffffffffffffffffff1602179055505050565b6001602052815f5260405f2081815481106112b8575f80fd5b905f5260205f2090600702015f9150915050805f0154908060010180546112de90612159565b80601f016020809104026020016040519081016040528092919081815260200182805461130a90612159565b80156113555780601f1061132c57610100808354040283529160200191611355565b820191905f5260205f20905b81548152906001019060200180831161133857829003601f168201915b50505050509080600201805461136a90612159565b80601f016020809104026020016040519081016040528092919081815260200182805461139690612159565b80156113e15780601f106113b8576101008083540402835291602001916113e1565b820191905f5260205f20905b8154815290600101906020018083116113c457829003601f168201915b505050505090806003015490806004015490806005015f9054906101000a900473ffffffffffffffffffffffffffffffffffffffff16908060060154905087565b60605f805b5f80549050811015611502575f818154811061144657611445612189565b5b905f5260205f20906006020160050160149054906101000a900460ff1680156114db57503373ffffffffffffffffffffffffffffffffffffffff165f828154811061149457611493612189565b5b905f5260205f2090600602016005015f9054906101000a900473ffffffffffffffffffffffffffffffffffffffff1673ffffffffffffffffffffffffffffffffffffffff16145b156114ef5781806114eb906121e3565b9250505b80806114fa906121e3565b915050611427565b505f8167ffffffffffffffff81111561151e5761151d611d06565b5b60405190808252806020026020018201604052801561154c5781602001602082028036833780820191505090505b5090505f805b5f8054905081101561164d575f818154811061157157611570612189565b5b905f5260205f20906006020160050160149054906101000a900460ff16801561160657503373ffffffffffffffffffffffffffffffffffffffff165f82815481106115bf576115be612189565b5b905f5260205f2090600602016005015f9054906101000a900473ffffffffffffffffffffffffffffffffffffffff1673ffffffffffffffffffffffffffffffffffffffff16145b1561163a578083838151811061161f5761161e612189565b5b6020026020010181815250508180611636906121e3565b9250505b8080611645906121e3565b915050611552565b5081935050505090565b5f8181548110611665575f80fd5b905f5260205f2090600602015f91509050805f01805461168490612159565b80601f01602080910402602001604051908101604052809291908181526020018280546116b090612159565b80156116fb5780601f106116d2576101008083540402835291602001916116fb565b820191905f5260205f20905b8154815290600101906020018083116116de57829003601f168201915b50505050509080600101805461171090612159565b80601f016020809104026020016040519081016040528092919081815260200182805461173c90612159565b80156117875780601f1061175e57610100808354040283529160200191611787565b820191905f5260205f20905b81548152906001019060200180831161176a57829003601f168201915b50505050509080600201805461179c90612159565b80601f01602080910402602001604051908101604052809291908181526020018280546117c890612159565b80156118135780601f106117ea57610100808354040283529160200191611813565b820191905f5260205f20905b8154815290600101906020018083116117f657829003601f168201915b505050505090806003015490806004015490806005015f9054906101000a900473ffffffffffffffffffffffffffffffffffffffff16908060050160149054906101000a900460ff16908060050160159054906101000a900460ff16905088565b5f81519050919050565b5f82825260208201905092915050565b5f819050602082019050919050565b5f819050919050565b6118af8161189d565b82525050565b5f81519050919050565b5f82825260208201905092915050565b5f5b838110156118ec5780820151818401526020810190506118d1565b5f8484015250505050565b5f601f19601f8301169050919050565b5f611911826118b5565b61191b81856118bf565b935061192b8185602086016118cf565b611934816118f7565b840191505092915050565b5f819050919050565b6119518161193f565b82525050565b5f73ffffffffffffffffffffffffffffffffffffffff82169050919050565b5f61198082611957565b9050919050565b61199081611976565b82525050565b5f60e083015f8301516119ab5f8601826118a6565b50602083015184820360208601526119c38282611907565b915050604083015184820360408601526119dd8282611907565b91505060608301516119f26060860182611948565b506080830151611a056080860182611948565b5060a0830151611a1860a0860182611987565b5060c0830151611a2b60c0860182611948565b508091505092915050565b5f611a418383611996565b905092915050565b5f602082019050919050565b5f611a5f82611874565b611a69818561187e565b935083602082028501611a7b8561188e565b805f5b85811015611ab65784840389528151611a978582611a36565b9450611aa283611a49565b925060208a01995050600181019050611a7e565b50829750879550505050505092915050565b5f6020820190508181035f830152611ae08184611a55565b905092915050565b5f81519050919050565b5f82825260208201905092915050565b5f819050602082019050919050565b5f611b1c8383611948565b60208301905092915050565b5f602082019050919050565b5f611b3e82611ae8565b611b488185611af2565b9350611b5383611b02565b805f5b83811015611b83578151611b6a8882611b11565b9750611b7583611b28565b925050600181019050611b56565b5085935050505092915050565b5f6020820190508181035f830152611ba88184611b34565b905092915050565b5f604051905090565b5f80fd5b5f80fd5b611bca8161193f565b8114611bd4575f80fd5b50565b5f81359050611be581611bc1565b92915050565b5f60208284031215611c0057611bff611bb9565b5b5f611c0d84828501611bd7565b91505092915050565b5f82825260208201905092915050565b5f611c30826118b5565b611c3a8185611c16565b9350611c4a8185602086016118cf565b611c53816118f7565b840191505092915050565b611c678161193f565b82525050565b611c7681611976565b82525050565b5f60e0820190508181035f830152611c94818a611c26565b90508181036020830152611ca88189611c26565b9050611cb76040830188611c5e565b8181036060830152611cc98187611c26565b9050611cd86080830186611c6d565b611ce560a0830185611c5e565b611cf260c0830184611c5e565b98975050505050505050565b5f80fd5b5f80fd5b7f4e487b71000000000000000000000000000000000000000000000000000000005f52604160045260245ffd5b611d3c826118f7565b810181811067ffffffffffffffff82111715611d5b57611d5a611d06565b5b80604052505050565b5f611d6d611bb0565b9050611d798282611d33565b919050565b5f67ffffffffffffffff821115611d9857611d97611d06565b5b611da1826118f7565b9050602081019050919050565b828183375f83830152505050565b5f611dce611dc984611d7e565b611d64565b905082815260208101848484011115611dea57611de9611d02565b5b611df5848285611dae565b509392505050565b5f82601f830112611e1157611e10611cfe565b5b8135611e21848260208601611dbc565b91505092915050565b5f8115159050919050565b611e3e81611e2a565b8114611e48575f80fd5b50565b5f81359050611e5981611e35565b92915050565b5f805f805f8060c08789031215611e7957611e78611bb9565b5b5f87013567ffffffffffffffff811115611e9657611e95611bbd565b5b611ea289828a01611dfd565b965050602087013567ffffffffffffffff811115611ec357611ec2611bbd565b5b611ecf89828a01611dfd565b9550506040611ee089828a01611bd7565b9450506060611ef189828a01611bd7565b935050608087013567ffffffffffffffff811115611f1257611f11611bbd565b5b611f1e89828a01611dfd565b92505060a0611f2f89828a01611e4b565b9150509295509295509295565b5f8060408385031215611f5257611f51611bb9565b5b5f611f5f85828601611bd7565b9250506020611f7085828601611bd7565b9150509250929050565b611f8381611976565b8114611f8d575f80fd5b50565b5f81359050611f9e81611f7a565b92915050565b5f8060408385031215611fba57611fb9611bb9565b5b5f611fc785828601611f90565b9250506020611fd885828601611bd7565b9150509250929050565b611feb8161189d565b82525050565b5f60e0820190506120045f83018a611fe2565b81810360208301526120168189611c26565b9050818103604083015261202a8188611c26565b90506120396060830187611c5e565b6120466080830186611c5e565b61205360a0830185611c6d565b61206060c0830184611c5e565b98975050505050505050565b5f61207682611957565b9050919050565b6120868161206c565b82525050565b61209581611e2a565b82525050565b5f610100820190508181035f8301526120b4818b611c26565b905081810360208301526120c8818a611c26565b905081810360408301526120dc8189611c26565b90506120eb6060830188611c5e565b6120f86080830187611c5e565b61210560a083018661207d565b61211260c083018561208c565b61211f60e083018461208c565b9998505050505050505050565b7f4e487b71000000000000000000000000000000000000000000000000000000005f52602260045260245ffd5b5f600282049050600182168061217057607f821691505b6020821081036121835761218261212c565b5b50919050565b7f4e487b71000000000000000000000000000000000000000000000000000000005f52603260045260245ffd5b7f4e487b71000000000000000000000000000000000000000000000000000000005f52601160045260245ffd5b5f6121ed8261193f565b91507fffffffffffffffffffffffffffffffffffffffffffffffffffffffffffffffff820361221f5761221e6121b6565b5b600182019050919050565b7f496e76616c696420696e646578000000000000000000000000000000000000005f82015250565b5f61225e600d83611c16565b91506122698261222a565b602082019050919050565b5f6020820190508181035f83015261228b81612252565b9050919050565b5f819050815f5260205f209050919050565b5f6020601f8301049050919050565b5f82821b905092915050565b5f600883026122ee7fffffffffffffffffffffffffffffffffffffffffffffffffffffffffffffffff826122b3565b6122f886836122b3565b95508019841693508086168417925050509392505050565b5f819050919050565b5f61233361232e6123298461193f565b612310565b61193f565b9050919050565b5f819050919050565b61234c83612319565b6123606123588261233a565b8484546122bf565b825550505050565b5f90565b612374612368565b61237f818484612343565b505050565b5b818110156123a2576123975f8261236c565b600181019050612385565b5050565b601f8211156123e7576123b881612292565b6123c1846122a4565b810160208510156123d0578190505b6123e46123dc856122a4565b830182612384565b50505b505050565b5f82821c905092915050565b5f6124075f19846008026123ec565b1980831691505092915050565b5f61241f83836123f8565b9150826002028217905092915050565b612438826118b5565b67ffffffffffffffff81111561245157612450611d06565b5b61245b8254612159565b6124668282856123a6565b5f60209050601f831160018114612497575f8415612485578287015190505b61248f8582612414565b8655506124f6565b601f1984166124a586612292565b5f5b828110156124cc578489015182556001820191506020850194506020810190506124a7565b868310156124e957848901516124e5601f8916826123f8565b8355505b6001600288020188555050505b505050505050565b7f54686973206974656d2069732061207065742c207573652062757950657420665f8201527f756e6374696f6e2e000000000000000000000000000000000000000000000000602082015250565b5f612558602883611c16565b9150612563826124fe565b604082019050919050565b5f6020820190508181035f8301526125858161254c565b9050919050565b7f4e6f7420656e6f756768207175616e7469747920617661696c61626c652e00005f82015250565b5f6125c0601e83611c16565b91506125cb8261258c565b602082019050919050565b5f6020820190508181035f8301526125ed816125b4565b9050919050565b5f6125fe8261193f565b91506126098361193f565b92508282026126178161193f565b9150828204841483151761262e5761262d6121b6565b5b5092915050565b7f496e73756666696369656e742066756e64732073656e742e00000000000000005f82015250565b5f612669601883611c16565b915061267482612635565b602082019050919050565b5f6020820190508181035f8301526126968161265d565b9050919050565b5f81905092915050565b50565b5f6126b55f8361269d565b91506126c0826126a7565b5f82019050919050565b5f6126d4826126aa565b9150819050919050565b7f5472616e73666572206661696c65642e000000000000000000000000000000005f82015250565b5f612712601083611c16565b915061271d826126de565b602082019050919050565b5f6020820190508181035f83015261273f81612706565b9050919050565b5f6127508261193f565b915061275b8361193f565b9250828203905081811115612773576127726121b6565b5b92915050565b5f819050919050565b61279361278e8261193f565b612779565b82525050565b5f8160601b9050919050565b5f6127af82612799565b9050919050565b5f6127c0826127a5565b9050919050565b6127d86127d382611976565b6127b6565b82525050565b5f6127e98287612782565b6020820191506127f982866127c7565b6014820191506128098285612782565b6020820191506128198284612782565b60208201915081905095945050505050565b7f496e73756666696369656e742066756e64732073656e740000000000000000005f82015250565b5f61285f601783611c16565b915061286a8261282b565b602082019050919050565b5f6020820190508181035f83015261288c81612853565b9050919050565b7f596f7520616c7265616479206f776e20746869732070657400000000000000005f82015250565b5f6128c7601883611c16565b91506128d282612893565b602082019050919050565b5f6020820190508181035f8301526128f4816128bb565b905091905056fea264697066735822122064cff88d6cff9fc322320567875384d2c20c8a5616c349d5537d43db5a9dddae64736f6c63430008150033",
  "immutableReferences": {},
  "source": "// SPDX-License-Identifier: MIT\npragma solidity ^0.8.0;\n\ncontract PetShop {\n    struct Item {\n        string name;\n        string description;\n        string ipfsUrl;\n        uint256 price;\n        uint256 quantity;\n        address payable owner;\n        bool isPet; // To distinguish between pets and products\n        bool isSold; // To indicate if the pet is sold\n    }\n\n    Item[] public items;\n\n    function listItem(\n        string memory _name, \n        string memory _description, \n        uint256 _price, \n        uint256 _quantity, \n        string memory _ipfsUrl, \n        bool _isPet\n    ) public {\n        items.push(Item({\n            name: _name,\n            description: _description,\n            ipfsUrl: _ipfsUrl,\n            price: _price,\n            quantity: _quantity,\n            owner: payable(msg.sender),\n            isPet: _isPet,\n            isSold: false\n        }));\n    }\n\n    function getAvailablePets() public view returns (uint256[] memory) {\n        uint256 count = 0;\n        for (uint256 i = 0; i < items.length; i++) {\n            if (items[i].isPet && !items[i].isSold) {\n                count++;\n            }\n        }\n\n        uint256[] memory result = new uint256[](count);\n        uint256 index = 0;\n        for (uint256 i = 0; i < items.length; i++) {\n            if (items[i].isPet && !items[i].isSold) {\n                result[index] = i;\n                index++;\n            }\n        }\n\n        return result;\n    }\n\n    function getAvailableProducts() public view returns (uint256[] memory) {\n        uint256 count = 0;\n        for (uint256 i = 0; i < items.length; i++) {\n            if (!items[i].isPet && items[i].quantity > 0) {\n                count++;\n            }\n        }\n\n        uint256[] memory result = new uint256[](count);\n        uint256 index = 0;\n        for (uint256 i = 0; i < items.length; i++) {\n            if (!items[i].isPet && items[i].quantity > 0) {\n                result[index] = i;\n                index++;\n            }\n        }\n\n        return result;\n    }\n\n    function getItem(uint256 index) public view returns (string memory, string memory, uint256, string memory, address, uint256, uint256) {\n        require(index < items.length, \"Invalid index\");\n        Item memory item = items[index];\n        return (item.name, item.description, item.price, item.ipfsUrl, item.owner, index, item.quantity);\n    }\n\n\n    function getMyPets() public view returns (uint256[] memory) {\n        uint256 count = 0;\n        for (uint256 i = 0; i < items.length; i++) {\n            if (items[i].isPet && items[i].owner == msg.sender) {\n                count++;\n            }\n        }\n\n        uint256[] memory result = new uint256[](count);\n        uint256 index = 0;\n        for (uint256 i = 0; i < items.length; i++) {\n            if (items[i].isPet && items[i].owner == msg.sender) {\n                result[index] = i;\n                index++;\n            }\n        }\n\n        return result;\n    }\n\n    function buyPet(uint256 _petId) public payable {\n        Item storage pet = items[_petId];\n        \n        require(msg.value >= pet.price, \"Insufficient funds sent\");\n        require(pet.owner != msg.sender, \"You already own this pet\");\n\n        pet.owner.transfer(pet.price);\n        pet.isSold = true;\n        pet.owner = payable(msg.sender);\n    }\n\n    struct Order {\n        bytes32 orderId;  // UUID-like identifier\n        string ipfsUrl;\n        string productName;\n        uint256 quantity;\n        uint256 totalPrice;\n        address buyer;\n        uint256 timestamp;\n    }\n\n    mapping(address => Order[]) public orderHistory;\n\n    function buyProduct(uint256 _productId, uint256 _quantity) public payable {\n        Item storage product = items[_productId];\n\n        require(!product.isPet, \"This item is a pet, use buyPet function.\");\n        require(product.quantity >= _quantity, \"Not enough quantity available.\");\n        uint256 totalPrice = product.price * _quantity;\n        require(msg.value >= totalPrice, \"Insufficient funds sent.\");\n\n        (bool success, ) = product.owner.call{value: totalPrice}(\"\");\n        require(success, \"Transfer failed.\");\n\n        product.quantity -= _quantity;\n\n        bytes32 newOrderId = keccak256(\n            abi.encodePacked(block.timestamp, msg.sender, _productId, _quantity)\n        );\n\n        // Add to order history\n        orderHistory[msg.sender].push(Order({\n            orderId: newOrderId,\n            ipfsUrl: product.ipfsUrl,\n            productName: product.name,\n            quantity: _quantity,\n            totalPrice: totalPrice,\n            buyer: msg.sender,\n            timestamp: block.timestamp\n        }));\n    }\n\n    function getOrderHistory() public view returns (Order[] memory) {\n        return orderHistory[msg.sender];\n    }\n}\n",
  "sourcePath": "/workspaces/petshop/contracts/PetShop.sol",
  "compiler": {
    "name": "solc",
    "version": "0.8.21+commit.d9974bed.Emscripten.clang"
  },
  "schemaVersion": "3.4.16",
  "updatedAt": "2024-10-13T00:49:14.289Z",
  "networkType": "ethereum",
  "devdoc": {
    "kind": "dev",
    "methods": {},
    "version": 1
  },
  "userdoc": {
    "kind": "user",
    "methods": {},
    "version": 1
  }
}